:060000000A128A11FC2F18
:100EF800831603138601831203138601F501F60195
:100F0800F7010130F000750A8B2F0310F00DFF3E3A
:100F1800031D892F70088312031386000130FF0018
:100F28007F08F5078230F100DD30F000F00B9A2FD2
:100F3800F10B9A2F9F2FF5010130F6070318F70AD6
:100F48000030F7077708803AFF0080307F02031DE2
:100F5800AF2F30307602031CB22FB32F852F03300A
:100F6800F2008A30F1005530F000F00BB92FF10B88
:100F7800B92FF20BB92FC02FF801F901F301F401D1
:100F8800730AFF000830F0000030F100CE2F710D19
:100F9800F10CF00CFF0BCB2F7008831203138600A3
:100FA8000130F3070318F40A0030F4078230F10027
:100FB800DD30F000F00BDE2FF10BDE2FE32FF30115
:100FC800F4010130F8070318F90A0030F907790825
:100FD800803AFF0080307F02031DF42F3030780202
:100FE800031CF72FF82FC42F822F0A128A1100280A
:080FF80083010A128A117C2F0B
:08400000FF3FFF3FFF3FFF3FC0
:02400E00713F00
:00000001FF
