:060000000A128A11EE2F26
:100F1E00FC346034DA34F2346634B634BE34E03441
:100F2E00FE34F6347E088A007F0882000A128A1187
:100F3E0099270A128A118000840A04087D06031973
:100F4E000034FF0A0319FE0A9D2F83120313AA0110
:100F5E00203084002B30F0000408F1000A30F2003B
:100F6E007008840083130008F300F00A71088400EF
:100F7E0073088000F10AF20BB72F83160313860154
:100F8E008312031386012A08203E8400831300086F
:100F9E0086000630F2001330F100AD30F000F00B99
:100FAE00D62FF10BD62FF20BD62FDD2F0130FF00EF
:100FBE007F0883120313AA070A302A06031DE82F9F
:100FCE00E92FCA2FAA01CA2F0A128A1100288313E9
:100FDE003530FD000730FE008F30FF002B308400CF
:100FEE000A128A119D270A128A1183010A128A1186
:020FFE00AC2F16
:08400000FF3FFF3FFF3FFF3FC0
:02400E00713F00
:00000001FF
