:060000000A128A110C280F
:10000800FE00030EF0000A08F1000A128A112E28D9
:100018000A128A110F28F20183010A128A11402854
:100028008316031318151930990018128312031335
:1000380098178316031307178717831203131816C5
:10004800831603138C160B178B1786018312031361
:1000580086010800831203138C1E3328342839289C
:100068001A08F200720886008C1271088A00700E55
:100078008300FE0E7E0E09000A128A1114200A124D
:0A0088008A1145280A128A110C287B
:08400000FF3FFF3FFF3FFF3FC0
:02400E00713F00
:00000001FF
