:060000000A128A110E280D
:10000800FE00030EF0000A08F1007F08F2000A1251
:100018008A1116280A128A111128F30183010A127B
:100028008A113728831203130C1C1B281C282E281E
:100038003C308F00B0308E000130FF007F08F3079E
:1000480014307306031D29282A282D280130860616
:10005800F3010C107208FF0071088A00700E83000B
:10006800FE0E7E0E09008316031306108312031377
:100078000610831603130C140B178B173C308312CE
:1000880003138F00B0308E009010101290121014CD
:080098004C280A128A110E28FF
:08400000FF3FFF3FFF3FFF3FC0
:02400E00713F00
:00000001FF
