:060000000A128A110C280F
:10000800FE00030EF0000A08F1000A128A113028D7
:100018000A128A110F2883010A128A1113288316DB
:100028000313061401170B168B1787100711831279
:1000380003138710071104308312031387068230D5
:10004800F300DD30F200F20B2728F30B27282C28C9
:100058001F280A128A110C288B1C332834283928A7
:1000680002308312031387068B1071088A00700E02
:080078008300FE0E7E0E09005C
:08400000FF3FFF3FFF3FFF3FC0
:02400E00713F00
:00000001FF
