:060000000A128A110E280D
:10000800FE00030EF0000A08F1007F08F2000A1251
:100018008A1135280A128A111128F30183010A125C
:100028008A111628831203138E018F011012901261
:100038009010101483160313071283120313071268
:10004800C330960050309500171497141711971560
:10005800831603130C150B178B1731280A128A11F4
:100068000E28831203130C1D3A283B284928013017
:10007800FF007F08F3070A307306031D442845284C
:10008800482810308706F3010C117208FF00710828
:0C0098008A00700E8300FE0E7E0E090030
:08400000FF3FFF3FFF3FFF3FC0
:02400E00713F00
:00000001FF
