:060000000A128A11FC2F18
:100E68001F3083160313860008108810831203139B
:100E78000810881408008312031397151715831692
:100E8800031307117C30920083120313121492107B
:100E9800121508000430710200300319700203189B
:100EA800562F572F6E2F70185A2F5E2F8312031349
:100EB8001716612F83120313171297127108F30084
:100EC8007008F2000310F30CF20C0310F30CF20C90
:100ED8007208950008000A128A1134270A128A112A
:100EE8000A128A113F270A128A1183120313061C59
:100EF8007E2F7F2F902F013088060230880603301E
:100F0800F6008A30F5005530F400F40B892FF50B04
:100F1800892FF60B892F902F83120313861C952F88
:100F2800962FA72F0030F000F1000A128A114E27E1
:100F38000A128A118230F500DD30F400F40BA22F7A
:100F4800F50BA22FA72F83120313061DAC2FAD2F6D
:100F5800BF2FFA30F0000030F1000A128A114E2734
:100F68000A128A118230F500DD30F400F40BBA2F32
:100F7800F50BBA2FBF2F83120313861DC42FC52F5D
:100F8800D72F7730F0000130F1000A128A114E276E
:100F98000A128A118230F500DD30F400F40BD22FEA
:100FA800F50BD22FD72F83120313061EDC2FDD2F4C
:100FB800EF2FF430F0000130F1000A128A114E27A9
:100FC8000A128A118230F500DD30F400F40BEA2FA2
:100FD800F50BEA2FEF2F0D30F500FB30F400F40B82
:100FE800F32FF50BF32FF82F792F0A128A11002807
:080FF80083010A128A116F2F18
:08400000FF3FFF3FFF3FFF3FC0
:02400E00713F00
:00000001FF
